{
  "_format": "hh-sol-artifact-1",
  "contractName": "SafeClub",
  "sourceName": "contracts/SafeClub.sol",
  "abi": [
    {
      "inputs": [],
      "stateMutability": "nonpayable",
      "type": "constructor"
    },
    {
      "inputs": [
        {
          "internalType": "address",
          "name": "owner",
          "type": "address"
        }
      ],
      "name": "OwnableInvalidOwner",
      "type": "error"
    },
    {
      "inputs": [
        {
          "internalType": "address",
          "name": "account",
          "type": "address"
        }
      ],
      "name": "OwnableUnauthorizedAccount",
      "type": "error"
    },
    {
      "inputs": [],
      "name": "ReentrancyGuardReentrantCall",
      "type": "error"
    },
    {
      "anonymous": false,
      "inputs": [
        {
          "indexed": true,
          "internalType": "address",
          "name": "sender",
          "type": "address"
        },
        {
          "indexed": false,
          "internalType": "uint256",
          "name": "amount",
          "type": "uint256"
        }
      ],
      "name": "Deposit",
      "type": "event"
    },
    {
      "anonymous": false,
      "inputs": [
        {
          "indexed": true,
          "internalType": "address",
          "name": "member",
          "type": "address"
        }
      ],
      "name": "MemberAdded",
      "type": "event"
    },
    {
      "anonymous": false,
      "inputs": [
        {
          "indexed": true,
          "internalType": "address",
          "name": "member",
          "type": "address"
        }
      ],
      "name": "MemberRemoved",
      "type": "event"
    },
    {
      "anonymous": false,
      "inputs": [
        {
          "indexed": true,
          "internalType": "address",
          "name": "previousOwner",
          "type": "address"
        },
        {
          "indexed": true,
          "internalType": "address",
          "name": "newOwner",
          "type": "address"
        }
      ],
      "name": "OwnershipTransferred",
      "type": "event"
    },
    {
      "anonymous": false,
      "inputs": [
        {
          "indexed": true,
          "internalType": "uint256",
          "name": "id",
          "type": "uint256"
        },
        {
          "indexed": true,
          "internalType": "address",
          "name": "proposer",
          "type": "address"
        },
        {
          "indexed": false,
          "internalType": "uint256",
          "name": "amount",
          "type": "uint256"
        },
        {
          "indexed": false,
          "internalType": "string",
          "name": "description",
          "type": "string"
        },
        {
          "indexed": false,
          "internalType": "uint256",
          "name": "deadline",
          "type": "uint256"
        }
      ],
      "name": "ProposalCreated",
      "type": "event"
    },
    {
      "anonymous": false,
      "inputs": [
        {
          "indexed": true,
          "internalType": "uint256",
          "name": "id",
          "type": "uint256"
        },
        {
          "indexed": false,
          "internalType": "uint256",
          "name": "amount",
          "type": "uint256"
        },
        {
          "indexed": false,
          "internalType": "address",
          "name": "to",
          "type": "address"
        }
      ],
      "name": "ProposalExecuted",
      "type": "event"
    },
    {
      "anonymous": false,
      "inputs": [
        {
          "indexed": true,
          "internalType": "uint256",
          "name": "id",
          "type": "uint256"
        },
        {
          "indexed": true,
          "internalType": "address",
          "name": "voter",
          "type": "address"
        },
        {
          "indexed": false,
          "internalType": "bool",
          "name": "support",
          "type": "bool"
        }
      ],
      "name": "Voted",
      "type": "event"
    },
    {
      "inputs": [
        {
          "internalType": "address",
          "name": "_member",
          "type": "address"
        }
      ],
      "name": "addMember",
      "outputs": [],
      "stateMutability": "nonpayable",
      "type": "function"
    },
    {
      "inputs": [
        {
          "internalType": "address payable",
          "name": "_to",
          "type": "address"
        },
        {
          "internalType": "uint256",
          "name": "_amount",
          "type": "uint256"
        },
        {
          "internalType": "string",
          "name": "_description",
          "type": "string"
        },
        {
          "internalType": "uint256",
          "name": "_deadline",
          "type": "uint256"
        }
      ],
      "name": "createProposal",
      "outputs": [],
      "stateMutability": "nonpayable",
      "type": "function"
    },
    {
      "inputs": [
        {
          "internalType": "uint256",
          "name": "_proposalId",
          "type": "uint256"
        }
      ],
      "name": "executeProposal",
      "outputs": [],
      "stateMutability": "nonpayable",
      "type": "function"
    },
    {
      "inputs": [],
      "name": "getBalance",
      "outputs": [
        {
          "internalType": "uint256",
          "name": "",
          "type": "uint256"
        }
      ],
      "stateMutability": "view",
      "type": "function"
    },
    {
      "inputs": [],
      "name": "getMemberCount",
      "outputs": [
        {
          "internalType": "uint256",
          "name": "",
          "type": "uint256"
        }
      ],
      "stateMutability": "view",
      "type": "function"
    },
    {
      "inputs": [
        {
          "internalType": "uint256",
          "name": "",
          "type": "uint256"
        },
        {
          "internalType": "address",
          "name": "",
          "type": "address"
        }
      ],
      "name": "hasVoted",
      "outputs": [
        {
          "internalType": "bool",
          "name": "",
          "type": "bool"
        }
      ],
      "stateMutability": "view",
      "type": "function"
    },
    {
      "inputs": [
        {
          "internalType": "uint256",
          "name": "",
          "type": "uint256"
        }
      ],
      "name": "memberList",
      "outputs": [
        {
          "internalType": "address",
          "name": "",
          "type": "address"
        }
      ],
      "stateMutability": "view",
      "type": "function"
    },
    {
      "inputs": [
        {
          "internalType": "address",
          "name": "",
          "type": "address"
        }
      ],
      "name": "members",
      "outputs": [
        {
          "internalType": "bool",
          "name": "isMember",
          "type": "bool"
        },
        {
          "internalType": "uint256",
          "name": "joinedAt",
          "type": "uint256"
        }
      ],
      "stateMutability": "view",
      "type": "function"
    },
    {
      "inputs": [],
      "name": "owner",
      "outputs": [
        {
          "internalType": "address",
          "name": "",
          "type": "address"
        }
      ],
      "stateMutability": "view",
      "type": "function"
    },
    {
      "inputs": [],
      "name": "proposalCount",
      "outputs": [
        {
          "internalType": "uint256",
          "name": "",
          "type": "uint256"
        }
      ],
      "stateMutability": "view",
      "type": "function"
    },
    {
      "inputs": [
        {
          "internalType": "uint256",
          "name": "",
          "type": "uint256"
        }
      ],
      "name": "proposals",
      "outputs": [
        {
          "internalType": "uint256",
          "name": "id",
          "type": "uint256"
        },
        {
          "internalType": "address payable",
          "name": "to",
          "type": "address"
        },
        {
          "internalType": "uint256",
          "name": "amount",
          "type": "uint256"
        },
        {
          "internalType": "string",
          "name": "description",
          "type": "string"
        },
        {
          "internalType": "uint256",
          "name": "deadline",
          "type": "uint256"
        },
        {
          "internalType": "uint256",
          "name": "votesFor",
          "type": "uint256"
        },
        {
          "internalType": "uint256",
          "name": "votesAgainst",
          "type": "uint256"
        },
        {
          "internalType": "bool",
          "name": "executed",
          "type": "bool"
        }
      ],
      "stateMutability": "view",
      "type": "function"
    },
    {
      "inputs": [
        {
          "internalType": "address",
          "name": "_member",
          "type": "address"
        }
      ],
      "name": "removeMember",
      "outputs": [],
      "stateMutability": "nonpayable",
      "type": "function"
    },
    {
      "inputs": [],
      "name": "renounceOwnership",
      "outputs": [],
      "stateMutability": "nonpayable",
      "type": "function"
    },
    {
      "inputs": [
        {
          "internalType": "address",
          "name": "newOwner",
          "type": "address"
        }
      ],
      "name": "transferOwnership",
      "outputs": [],
      "stateMutability": "nonpayable",
      "type": "function"
    },
    {
      "inputs": [
        {
          "internalType": "uint256",
          "name": "_proposalId",
          "type": "uint256"
        },
        {
          "internalType": "bool",
          "name": "_support",
          "type": "bool"
        }
      ],
      "name": "vote",
      "outputs": [],
      "stateMutability": "nonpayable",
      "type": "function"
    },
    {
      "stateMutability": "payable",
      "type": "receive"
    }
  ],
  "bytecode": "0x60806040523480156200001157600080fd5b50336001600081905550600073ffffffffffffffffffffffffffffffffffffffff168173ffffffffffffffffffffffffffffffffffffffff1603620000905760006040517f1e4fbdf7000000000000000000000000000000000000000000000000000000008152600401620000879190620002f1565b60405180910390fd5b620000a181620000b960201b60201c565b50620000b3336200017f60201b60201c565b6200030e565b6000600160009054906101000a900473ffffffffffffffffffffffffffffffffffffffff16905081600160006101000a81548173ffffffffffffffffffffffffffffffffffffffff021916908373ffffffffffffffffffffffffffffffffffffffff1602179055508173ffffffffffffffffffffffffffffffffffffffff168173ffffffffffffffffffffffffffffffffffffffff167f8be0079c531659141344cd1fd0a4f28419497f9722a3daafe3b4186f6b6457e060405160405180910390a35050565b604051806040016040528060011515815260200142815250600260008373ffffffffffffffffffffffffffffffffffffffff1673ffffffffffffffffffffffffffffffffffffffff16815260200190815260200160002060008201518160000160006101000a81548160ff021916908315150217905550602082015181600101559050506006819080600181540180825580915050600190039060005260206000200160009091909190916101000a81548173ffffffffffffffffffffffffffffffffffffffff021916908373ffffffffffffffffffffffffffffffffffffffff1602179055508073ffffffffffffffffffffffffffffffffffffffff167fb251eb052afc73ffd02ffe85ad79990a8b3fed60d76dbc2fa2fdd7123dffd91460405160405180910390a250565b600073ffffffffffffffffffffffffffffffffffffffff82169050919050565b6000620002d982620002ac565b9050919050565b620002eb81620002cc565b82525050565b6000602082019050620003086000830184620002e0565b92915050565b611fa7806200031e6000396000f3fe6080604052600436106100ec5760003560e01c80637d10707b1161008a578063c9d27afe11610059578063c9d27afe14610355578063ca6d56dc1461037e578063da35c664146103a7578063f2fde38b146103d257610141565b80637d10707b146102995780638da5cb5b146102c2578063997072f7146102ed578063b307fc6d1461031857610141565b80630d61b519116100c65780630d61b519146101f157806312065fe01461021a5780634385963214610245578063715018a61461028257610141565b8063013cf08b1461014657806308ae4b0c1461018a5780630b1ca49a146101c857610141565b36610141573373ffffffffffffffffffffffffffffffffffffffff167fe1fffcc4923d04b559f4d29a8bfc6cda04eb5b0d3c460751c2402c5c5cc9109c34604051610137919061124b565b60405180910390a2005b600080fd5b34801561015257600080fd5b5061016d6004803603810190610168919061129c565b6103fb565b6040516101819897969594939291906113b5565b60405180910390f35b34801561019657600080fd5b506101b160048036038101906101ac9190611478565b6104f8565b6040516101bf9291906114a5565b60405180910390f35b3480156101d457600080fd5b506101ef60048036038101906101ea9190611478565b610529565b005b3480156101fd57600080fd5b506102186004803603810190610213919061129c565b610661565b005b34801561022657600080fd5b5061022f6108c3565b60405161023c919061124b565b60405180910390f35b34801561025157600080fd5b5061026c600480360381019061026791906114ce565b6108cb565b604051610279919061150e565b60405180910390f35b34801561028e57600080fd5b506102976108fa565b005b3480156102a557600080fd5b506102c060048036038101906102bb91906115ba565b61090e565b005b3480156102ce57600080fd5b506102d7610ae1565b6040516102e49190611651565b60405180910390f35b3480156102f957600080fd5b50610302610b0b565b60405161030f919061124b565b60405180910390f35b34801561032457600080fd5b5061033f600480360381019061033a919061129c565b610b18565b60405161034c9190611651565b60405180910390f35b34801561036157600080fd5b5061037c60048036038101906103779190611698565b610b57565b005b34801561038a57600080fd5b506103a560048036038101906103a09190611478565b610e30565b005b3480156103b357600080fd5b506103bc610ed4565b6040516103c9919061124b565b60405180910390f35b3480156103de57600080fd5b506103f960048036038101906103f49190611478565b610eda565b005b60036020528060005260406000206000915090508060000154908060010160009054906101000a900473ffffffffffffffffffffffffffffffffffffffff169080600201549080600301805461045090611707565b80601f016020809104026020016040519081016040528092919081815260200182805461047c90611707565b80156104c95780601f1061049e576101008083540402835291602001916104c9565b820191906000526020600020905b8154815290600101906020018083116104ac57829003601f168201915b5050505050908060040154908060050154908060060154908060070160009054906101000a900460ff16905088565b60026020528060005260406000206000915090508060000160009054906101000a900460ff16908060010154905082565b610531610f60565b600260008273ffffffffffffffffffffffffffffffffffffffff1673ffffffffffffffffffffffffffffffffffffffff16815260200190815260200160002060000160009054906101000a900460ff166105c0576040517f08c379a00000000000000000000000000000000000000000000000000000000081526004016105b790611784565b60405180910390fd5b6000600260008373ffffffffffffffffffffffffffffffffffffffff1673ffffffffffffffffffffffffffffffffffffffff16815260200190815260200160002060000160006101000a81548160ff0219169083151502179055508073ffffffffffffffffffffffffffffffffffffffff167f6e76fb4c77256006d9c38ec7d82b45a8c8f3c27b1d6766fffc42dfb8de68449260405160405180910390a250565b610669610fe7565b60006003600083815260200190815260200160002090508060070160009054906101000a900460ff16156106d2576040517f08c379a00000000000000000000000000000000000000000000000000000000081526004016106c9906117f0565b60405180910390fd5b806006015481600501541161071c576040517f08c379a00000000000000000000000000000000000000000000000000000000081526004016107139061185c565b60405180910390fd5b8060020154471015610763576040517f08c379a000000000000000000000000000000000000000000000000000000000815260040161075a906118c8565b60405180910390fd5b60018160070160006101000a81548160ff02191690831515021790555060008160010160009054906101000a900473ffffffffffffffffffffffffffffffffffffffff1673ffffffffffffffffffffffffffffffffffffffff1682600201546040516107ce90611919565b60006040518083038185875af1925050503d806000811461080b576040519150601f19603f3d011682016040523d82523d6000602084013e610810565b606091505b5050905080610854576040517f08c379a000000000000000000000000000000000000000000000000000000000815260040161084b9061197a565b60405180910390fd5b827fe285e47f4804f679760aa4e907da874045af16436d55df64b64ffd9ca2539dfa83600201548460010160009054906101000a900473ffffffffffffffffffffffffffffffffffffffff166040516108ae9291906119f9565b60405180910390a250506108c061102d565b50565b600047905090565b60046020528160005260406000206020528060005260406000206000915091509054906101000a900460ff1681565b610902610f60565b61090c6000611037565b565b600260003373ffffffffffffffffffffffffffffffffffffffff1673ffffffffffffffffffffffffffffffffffffffff16815260200190815260200160002060000160009054906101000a900460ff1661099d576040517f08c379a000000000000000000000000000000000000000000000000000000000815260040161099490611784565b60405180910390fd5b4281116109df576040517f08c379a00000000000000000000000000000000000000000000000000000000081526004016109d690611a6e565b60405180910390fd5b6000600560008154809291906109f490611abd565b9190505590506000600360008381526020019081526020016000209050818160000181905550868160010160006101000a81548173ffffffffffffffffffffffffffffffffffffffff021916908373ffffffffffffffffffffffffffffffffffffffff1602179055508581600201819055508484826003019182610a79929190611ce1565b508281600401819055503373ffffffffffffffffffffffffffffffffffffffff16827f7d7c160743ad71943eeebe651bc4c5454aa42da293805baa96a623e316f11f4b88888888604051610ad09493929190611ded565b60405180910390a350505050505050565b6000600160009054906101000a900473ffffffffffffffffffffffffffffffffffffffff16905090565b6000600680549050905090565b60068181548110610b2857600080fd5b906000526020600020016000915054906101000a900473ffffffffffffffffffffffffffffffffffffffff1681565b600260003373ffffffffffffffffffffffffffffffffffffffff1673ffffffffffffffffffffffffffffffffffffffff16815260200190815260200160002060000160009054906101000a900460ff16610be6576040517f08c379a0000000000000000000000000000000000000000000000000000000008152600401610bdd90611784565b60405180910390fd5b600060036000848152602001908152602001600020905080600401544210610c43576040517f08c379a0000000000000000000000000000000000000000000000000000000008152600401610c3a90611e79565b60405180910390fd5b8060070160009054906101000a900460ff1615610c95576040517f08c379a0000000000000000000000000000000000000000000000000000000008152600401610c8c906117f0565b60405180910390fd5b6004600084815260200190815260200160002060003373ffffffffffffffffffffffffffffffffffffffff1673ffffffffffffffffffffffffffffffffffffffff16815260200190815260200160002060009054906101000a900460ff1615610d33576040517f08c379a0000000000000000000000000000000000000000000000000000000008152600401610d2a90611ee5565b60405180910390fd5b60016004600085815260200190815260200160002060003373ffffffffffffffffffffffffffffffffffffffff1673ffffffffffffffffffffffffffffffffffffffff16815260200190815260200160002060006101000a81548160ff0219169083151502179055508115610dc157806005016000815480929190610db790611abd565b9190505550610ddc565b806006016000815480929190610dd690611abd565b91905055505b3373ffffffffffffffffffffffffffffffffffffffff16837ff2913dbe661ee2acc4a046d8fbcdc792373bda34c41c6086484b5345e5785e5f84604051610e23919061150e565b60405180910390a3505050565b610e38610f60565b600260008273ffffffffffffffffffffffffffffffffffffffff1673ffffffffffffffffffffffffffffffffffffffff16815260200190815260200160002060000160009054906101000a900460ff1615610ec8576040517f08c379a0000000000000000000000000000000000000000000000000000000008152600401610ebf90611f51565b60405180910390fd5b610ed1816110fd565b50565b60055481565b610ee2610f60565b600073ffffffffffffffffffffffffffffffffffffffff168173ffffffffffffffffffffffffffffffffffffffff1603610f545760006040517f1e4fbdf7000000000000000000000000000000000000000000000000000000008152600401610f4b9190611651565b60405180910390fd5b610f5d81611037565b50565b610f6861122a565b73ffffffffffffffffffffffffffffffffffffffff16610f86610ae1565b73ffffffffffffffffffffffffffffffffffffffff1614610fe557610fa961122a565b6040517f118cdaa7000000000000000000000000000000000000000000000000000000008152600401610fdc9190611651565b60405180910390fd5b565b600260005403611023576040517f3ee5aeb500000000000000000000000000000000000000000000000000000000815260040160405180910390fd5b6002600081905550565b6001600081905550565b6000600160009054906101000a900473ffffffffffffffffffffffffffffffffffffffff16905081600160006101000a81548173ffffffffffffffffffffffffffffffffffffffff021916908373ffffffffffffffffffffffffffffffffffffffff1602179055508173ffffffffffffffffffffffffffffffffffffffff168173ffffffffffffffffffffffffffffffffffffffff167f8be0079c531659141344cd1fd0a4f28419497f9722a3daafe3b4186f6b6457e060405160405180910390a35050565b604051806040016040528060011515815260200142815250600260008373ffffffffffffffffffffffffffffffffffffffff1673ffffffffffffffffffffffffffffffffffffffff16815260200190815260200160002060008201518160000160006101000a81548160ff021916908315150217905550602082015181600101559050506006819080600181540180825580915050600190039060005260206000200160009091909190916101000a81548173ffffffffffffffffffffffffffffffffffffffff021916908373ffffffffffffffffffffffffffffffffffffffff1602179055508073ffffffffffffffffffffffffffffffffffffffff167fb251eb052afc73ffd02ffe85ad79990a8b3fed60d76dbc2fa2fdd7123dffd91460405160405180910390a250565b600033905090565b6000819050919050565b61124581611232565b82525050565b6000602082019050611260600083018461123c565b92915050565b600080fd5b600080fd5b61127981611232565b811461128457600080fd5b50565b60008135905061129681611270565b92915050565b6000602082840312156112b2576112b1611266565b5b60006112c084828501611287565b91505092915050565b600073ffffffffffffffffffffffffffffffffffffffff82169050919050565b60006112f4826112c9565b9050919050565b611304816112e9565b82525050565b600081519050919050565b600082825260208201905092915050565b60005b83811015611344578082015181840152602081019050611329565b60008484015250505050565b6000601f19601f8301169050919050565b600061136c8261130a565b6113768185611315565b9350611386818560208601611326565b61138f81611350565b840191505092915050565b60008115159050919050565b6113af8161139a565b82525050565b6000610100820190506113cb600083018b61123c565b6113d8602083018a6112fb565b6113e5604083018961123c565b81810360608301526113f78188611361565b9050611406608083018761123c565b61141360a083018661123c565b61142060c083018561123c565b61142d60e08301846113a6565b9998505050505050505050565b6000611445826112c9565b9050919050565b6114558161143a565b811461146057600080fd5b50565b6000813590506114728161144c565b92915050565b60006020828403121561148e5761148d611266565b5b600061149c84828501611463565b91505092915050565b60006040820190506114ba60008301856113a6565b6114c7602083018461123c565b9392505050565b600080604083850312156114e5576114e4611266565b5b60006114f385828601611287565b925050602061150485828601611463565b9150509250929050565b600060208201905061152360008301846113a6565b92915050565b611532816112e9565b811461153d57600080fd5b50565b60008135905061154f81611529565b92915050565b600080fd5b600080fd5b600080fd5b60008083601f84011261157a57611579611555565b5b8235905067ffffffffffffffff8111156115975761159661155a565b5b6020830191508360018202830111156115b3576115b261155f565b5b9250929050565b6000806000806000608086880312156115d6576115d5611266565b5b60006115e488828901611540565b95505060206115f588828901611287565b945050604086013567ffffffffffffffff8111156116165761161561126b565b5b61162288828901611564565b9350935050606061163588828901611287565b9150509295509295909350565b61164b8161143a565b82525050565b60006020820190506116666000830184611642565b92915050565b6116758161139a565b811461168057600080fd5b50565b6000813590506116928161166c565b92915050565b600080604083850312156116af576116ae611266565b5b60006116bd85828601611287565b92505060206116ce85828601611683565b9150509250929050565b7f4e487b7100000000000000000000000000000000000000000000000000000000600052602260045260246000fd5b6000600282049050600182168061171f57607f821691505b602082108103611732576117316116d8565b5b50919050565b7f4e6f742061206d656d6265720000000000000000000000000000000000000000600082015250565b600061176e600c83611315565b915061177982611738565b602082019050919050565b6000602082019050818103600083015261179d81611761565b9050919050565b7f416c726561647920657865637574656400000000000000000000000000000000600082015250565b60006117da601083611315565b91506117e5826117a4565b602082019050919050565b60006020820190508181036000830152611809816117cd565b9050919050565b7f50726f706f73616c2072656a6563746564000000000000000000000000000000600082015250565b6000611846601183611315565b915061185182611810565b602082019050919050565b6000602082019050818103600083015261187581611839565b9050919050565b7f496e73756666696369656e742066756e647320696e207661756c740000000000600082015250565b60006118b2601b83611315565b91506118bd8261187c565b602082019050919050565b600060208201905081810360008301526118e1816118a5565b9050919050565b600081905092915050565b50565b60006119036000836118e8565b915061190e826118f3565b600082019050919050565b6000611924826118f6565b9150819050919050565b7f5472616e73666572206661696c65640000000000000000000000000000000000600082015250565b6000611964600f83611315565b915061196f8261192e565b602082019050919050565b6000602082019050818103600083015261199381611957565b9050919050565b6000819050919050565b60006119bf6119ba6119b5846112c9565b61199a565b6112c9565b9050919050565b60006119d1826119a4565b9050919050565b60006119e3826119c6565b9050919050565b6119f3816119d8565b82525050565b6000604082019050611a0e600083018561123c565b611a1b60208301846119ea565b9392505050565b7f496e76616c696420646561646c696e6500000000000000000000000000000000600082015250565b6000611a58601083611315565b9150611a6382611a22565b602082019050919050565b60006020820190508181036000830152611a8781611a4b565b9050919050565b7f4e487b7100000000000000000000000000000000000000000000000000000000600052601160045260246000fd5b6000611ac882611232565b91507fffffffffffffffffffffffffffffffffffffffffffffffffffffffffffffffff8203611afa57611af9611a8e565b5b600182019050919050565b600082905092915050565b7f4e487b7100000000000000000000000000000000000000000000000000000000600052604160045260246000fd5b60008190508160005260206000209050919050565b60006020601f8301049050919050565b600082821b905092915050565b600060088302611ba17fffffffffffffffffffffffffffffffffffffffffffffffffffffffffffffffff82611b64565b611bab8683611b64565b95508019841693508086168417925050509392505050565b6000611bde611bd9611bd484611232565b61199a565b611232565b9050919050565b6000819050919050565b611bf883611bc3565b611c0c611c0482611be5565b848454611b71565b825550505050565b600090565b611c21611c14565b611c2c818484611bef565b505050565b5b81811015611c5057611c45600082611c19565b600181019050611c32565b5050565b601f821115611c9557611c6681611b3f565b611c6f84611b54565b81016020851015611c7e578190505b611c92611c8a85611b54565b830182611c31565b50505b505050565b600082821c905092915050565b6000611cb860001984600802611c9a565b1980831691505092915050565b6000611cd18383611ca7565b9150826002028217905092915050565b611ceb8383611b05565b67ffffffffffffffff811115611d0457611d03611b10565b5b611d0e8254611707565b611d19828285611c54565b6000601f831160018114611d485760008415611d36578287013590505b611d408582611cc5565b865550611da8565b601f198416611d5686611b3f565b60005b82811015611d7e57848901358255600182019150602085019450602081019050611d59565b86831015611d9b5784890135611d97601f891682611ca7565b8355505b6001600288020188555050505b50505050505050565b82818337600083830152505050565b6000611dcc8385611315565b9350611dd9838584611db1565b611de283611350565b840190509392505050565b6000606082019050611e02600083018761123c565b8181036020830152611e15818587611dc0565b9050611e24604083018461123c565b95945050505050565b7f566f74696e6720656e6465640000000000000000000000000000000000000000600082015250565b6000611e63600c83611315565b9150611e6e82611e2d565b602082019050919050565b60006020820190508181036000830152611e9281611e56565b9050919050565b7f416c726561647920766f74656400000000000000000000000000000000000000600082015250565b6000611ecf600d83611315565b9150611eda82611e99565b602082019050919050565b60006020820190508181036000830152611efe81611ec2565b9050919050565b7f416c72656164792061206d656d62657200000000000000000000000000000000600082015250565b6000611f3b601083611315565b9150611f4682611f05565b602082019050919050565b60006020820190508181036000830152611f6a81611f2e565b905091905056fea264697066735822122014ea3ee55484fdf2cdd70feb1b92bf1f78b7313806b63b7ae7cd0106f3b9cd5d64736f6c63430008140033",
  "linkReferences": {},
  "deployedLinkReferences": {}
}